:100000000C942A000C9434000C9434000C943400AA
:100010000C9434000C9434000C948F000C94340035
:100020000C9434000C9434000C9434000C94340080
:100030000C9434000C9434000C9434000C94340070
:100040000C9434000C9434000C9434000C94340060
:100050000C94340011241FBECFE5D4E0DEBFCDBF29
:100060000E9482000C94A1000C940000F8941DBC26
:100070001CBC9BBD8ABD89B7806189BF78948FB550
:100080008C7F8FBD8EB58F7E8EBD8EB588608EBD08
:1000900060347105F1F038F46115710561F0683074
:1000A000710581F02BC0611581E07807C9F06115F9
:1000B0007440E9F023C08EB5897F8EBD8EB5816016
:1000C0008EBD08958EB58A7F8EBD8EB582608EBD41
:1000D00008958EB58B7F8EBD8EB583608EBD0895DD
:1000E0008EB58C7F8EBD8EB584608EBD08958EB525
:1000F0008D7F8EBD8EB585608EBD08958EB5887F4F
:100100008EBD089587B3876087BB88B3887F88BB1F
:1001100060E470E088E09DE30E943600FFCF1F920C
:100120000F920FB60F9211248F939F9398B387E08D
:10013000892788BB9F918F910F900FBE0F901F90C2
:060140001895F894FFCFB2
:00000001FF
