:100000000C942A000C9447000C9447000C94470071
:100010000C9447000C9447000C9447000C94470044
:100020000C9447000C9447000C9447000C945B0020
:100030000C946A000C9447000C9447000C94470001
:100040000C9447000C9447000C9447000C94470014
:100050000C94470011241FBECFE5D4E0DEBFCDBF16
:1000600010E0A0E6B0E0E6EFF0E002C005900D92EF
:10007000A236B107D9F720E0A2E6B0E001C01D9298
:10008000A336B207E1F70E9452000C9479000C9459
:1000900000001092620010BC86E089B98AB18861C4
:1000A0008AB908958FEF87BB60E875E280E090E041
:1000B0000E944900FFCF1F920F920FB60F9211249A
:1000C0008F938CB1809362008F910F900FBE0F9031
:1000D0001F9018951F920F920FB60F9211248F93B5
:1000E000809160008CB98F910F900FBE0F901F9080
:0600F0001895F894FFCF03
:0200F6006100A7
:00000001FF
